:04000000AFEF00F06E
:100008004F82FACF06F0FBCF07F0D9CF08F0DACF4E
:1000180009F0F3CF0AF0F4CF0BF0F6CF0CF0F7CFDE
:100028000DF0F8CF0EF0F5CF0FF0F2A01EEF00F0B4
:1000380020EF00F062EF00F081380F0B106E1050C7
:10004800D8A429EF00F02BEF00F031EF00F08C84FA
:10005800010E0001AC6F5EEF00F0020E1018D8A47C
:1000680038EF00F03AEF00F040EF00F08C84000E1B
:100078000001AC6F5EEF00F0060E1018D8A447EF31
:1000880000F049EF00F054EF00F08CA44EEF00F0C0
:1000980051EF00F08C8452EF00F08C943BEF00F0AD
:1000A800040E1018D8A45BEF00F05DEF00F05EEFCF
:1000B80000F0FF00F290F28699EF00F0F2AC67EFE3
:1000C80000F069EF00F099EF00F0A0A66EEF00F0E5
:1000D80070EF00F079EF00F0A1A675EF00F077EF70
:1000E80000F079EF00F0F8EC12F09DA67EEF00F03A
:1000F80080EF00F089EF00F09EA685EF00F087EF13
:1001080000F089EF00F0F5EC12F0F2AA8EEF00F0A3
:1001180090EF00F099EF00F0F2A495EF00F097EF60
:1001280000F099EF00F0C3EC11F00FC0F5FF0EC01E
:10013800F8FF0DC0F7FF0CC0F6FF0BC0F4FF0AC0B4
:10014800F3FF09C0DAFF08C0D9FF07C0FBFF06C0EC
:0A015800FAFF4F921100A2EF11F020
:100F0000006E24000000000000000000000000004F
:100F100000B0240000D425822576253E226821CA0F
:100F200025C0256A255E25EE230000000000008E06
:100F3000250000001450800B1D6E145014241F6EE9
:100F400013AEA5EF07F0A7EF07F0A8EF07F01F809B
:100F50001F50D8B4AEEF07F0B0EF07F0C5EF07F0C1
:100F60001F28D8A4B6EF07F0B8EF07F0C0EF07F0DE
:100F7000000E116E000E126E000E136E000E146E37
:100F8000138E000E146ECDEF07F0000E116E000EE2
:100F9000126E000E136E000E146E1850800B1E6E33
:100FA0001D501E18D8B4D7EF07F0D9EF07F0DAEFCD
:100FB00007F01D8C185018241E6E17AEE2EF07F0D4
:100FC000E4EF07F0E5EF07F01E801E50D8B4EBEF1A
:100FD00007F0EDEF07F002EF08F01E28D8A4F3EFBA
:100FE00007F0F5EF07F0FDEF07F0000E156E000EAD
:100FF000166E000E176E000E186E178E000E186E0D
:101000000AEF08F0000E156E000E166E000E176E39
:10101000000E186E1F501E5CD8B011EF08F013EFD1
:1010200008F03AEF08F01DAC18EF08F01AEF08F0DE
:101030001CEF08F0800E1D1A1FC020F01EC01FF00C
:1010400020C01EF011C020F015C011F020C015F016
:1010500012C020F016C012F020C016F013C020F00D
:1010600017C013F020C017F014C020F018C014F0FF
:1010700020C018F0000E206E1F501EC019F01A6A12
:10108000195E000E1A5A1ABE4FEF08F01A5009E105
:101090001A0E195CD8A04FEF08F051EF08F088EF56
:1010A00008F01150121013101410D8A45AEF08F0C1
:1010B0005DEF08F0010E5EEF08F0000E206E000EEE
:1010C000116E000E126E000E136E000E146E1EC016
:1010D0001FF091EF08F020A070EF08F072EF08F019
:1010E00078EF08F0D89020300109206E7AEF08F0F0
:1010F000D890203211A07FEF08F081EF08F082EF46
:1011000008F0208E143414321332123211321F2A96
:101110001E501F5CD8A08FEF08F091EF08F06BEF26
:1011200008F01DBC96EF08F098EF08F0D8EF08F033
:101130001F50D8A49EEF08F0A0EF08F0AAEF08F027
:10114000000E116E000E126E000E136E000E146E65
:10115000F9EF09F0155011261650122217501322DC
:101160001850142214A0B7EF08F0B9EF08F065EF9B
:1011700009F020A0BEEF08F0C0EF08F0C6EF08F0BD
:10118000D89020300109206EC8EF08F0D8902032A6
:1011900011A0CDEF08F0CFEF08F0D0EF08F0208ECF
:1011A000143414321332123211321F2A65EF09F04F
:1011B0001550115C16501258175013581450800ACD
:1011C000196E1850800A1958D8B0E9EF08F0EBEF03
:1011D00008F016EF09F01150155C196E12501658F0
:1011E0001A6E135017581B6E145018581C6EFF0EB1
:1011F0001924116EFF0E1A20126EFF0E1B20136EA3
:10120000FF0E1C20146E800E1D1A206C2050D8A4D6
:101210000CEF09F00EEF09F01EEF09F0010E112698
:10122000000E1222132214221EEF09F01550115E37
:101230001650125A1750135A1850145A11501210AF
:1012400013101410D8A427EF09F029EF09F05EEF6E
:1012500009F02050D8A42FEF09F031EF09F05EEF2C
:1012600009F0000E116E000E126E000E136E000ECD
:10127000146EF9EF09F0D890113612361336143681
:1012800020AE45EF09F047EF09F048EF09F0118073
:1012900020A04DEF09F04FEF09F053EF09F0D8808F
:1012A000203655EF09F0D89020361F50D8B45BEFA8
:1012B00009F05DEF09F05EEF09F01F0613AE63EF72
:1012C00009F065EF09F03BEF09F0000E1E6E20AE4D
:1012D0006CEF09F06EEF09F086EF09F020C019F00D
:1012E0007F0E1916D8B477EF09F079EF09F07DEF8A
:1012F00009F0010E1E6E86EF09F011A082EF09F0D1
:1013000084EF09F086EF09F079EF09F01E50D8B4A8
:101310008CEF09F08EEF09F0B9EF09F0010E1126FC
:10132000000E12221322142214A099EF09F09BEF51
:1013300009F0B9EF09F011C019F012C01AF013C08A
:101340001BF014C01CF01C341C321B321A32193230
:1013500019C011F01AC012F01BC013F01CC014F019
:101360001F28D8B4B6EF09F0B8EF09F0B9EF09F0CB
:101370001F2A1F28D8B4BFEF09F0C1EF09F0C9EF49
:1013800009F01F50D8A4C7EF09F0C9EF09F0DBEF4F
:1013900009F0000E116E000E126E000E136E000E9C
:1013A000146E1F50D8A4D7EF09F0D9EF09F0DBEF86
:1013B00009F0000E1D6E1FA0E0EF09F0E2EF09F04A
:1013C000E5EF09F0138EE6EF09F0139ED8901F3079
:1013D000146E1DAEEEEF09F0F0EF09F0F1EF09F039
:1013E000148E11C011F012C012F013C013F014C00B
:1013F00014F0120000016351800B686F6351632584
:101400006E6F62AF06EF0AF008EF0AF009EF0AF01C
:101410006E816E51D8B40FEF0AF011EF0AF024EF8D
:101420000AF06E29D8A417EF0AF019EF0AF021EF9D
:101430000AF0000E606F000E616F000E626F000E0A
:10144000636F628F2CEF0AF0000E606F000E616F09
:10145000000E626F000E636F6751800B681B67514F
:101460006725696F66AF37EF0AF039EF0AF03AEF98
:101470000AF069816951D8B440EF0AF042EF0AF0EE
:1014800055EF0AF06929D8A448EF0AF04AEF0AF0AC
:1014900052EF0AF0000E646F000E656F000E666F6B
:1014A000000E676F668F5DEF0AF0000E646F000E2E
:1014B000656F000E666F000E676F6951D8B463EFF9
:1014C0000AF065EF0AF06DEF0AF06E51D8A46BEFE9
:1014D0000AF06DEF0AF077EF0AF0000E606F000E71
:1014E000616F000E626F000E636F0FEF0CF06651BC
:1014F0006003F3CF73F0F4CF74F073516A6F6B6BCA
:101500006C6B6D6B74516F6F706B716B726B65513F
:101510006103F3CF73F0F4CF74F073516A27000EB8
:101520006B236C236D2374516F27000E702371237E
:10153000722364516203F3CF73F0F4CF74F07351EC
:101540006A27000E6B236C236D2374516F27000EE6
:101550007023712372236CC06DF06BC06CF06AC095
:101560006BF06A6B64516103F3CF73F0F4CF74F0E6
:1015700073516A2774516B23000E6C23000E6D2388
:1015800065516003F3CF73F0F4CF74F073516A27A1
:1015900074516B23000E6C23000E6D236CC06DF034
:1015A0006BC06CF06AC06BF06A6B64516003F3CF80
:1015B00073F0F4CF74F073516A2774516B23000EEB
:1015C0006C23000E6D2366516103F3CF73F0F4CFEB
:1015D00074F073516F2774517023000E7123000E45
:1015E000722365516203F3CF73F0F4CF74F073513B
:1015F0006F2774517023000E7123000E7223665101
:101600006203F3CF73F0F4CF74F07351386E7451FA
:10161000396E3A6A3B6A3AC03BF039C03AF038C09A
:1016200039F0386A38506F27395070233A50712397
:101630003B5072236AC038F06BC039F06CC03AF08E
:101640006DC03BF0190E2AEF0BF0D8903B323A32C6
:1016500039323832E82E25EF0BF038506F273950E9
:1016600070233A5071233B5072236CC06DF06BC0F5
:101670006CF06AC06BF06A6B69516EC038F0396A01
:101680003826000E3922820E3824736FFF0E39205F
:10169000746F60EF0BF0D8906F3770377137723717
:1016A0006DAF55EF0BF057EF0BF058EF0BF06F816C
:1016B000D8906A376B376C376D377307D8A07407CB
:1016C00071AF65EF0BF067EF0BF04BEF0BF0000E17
:1016D000696F6DAF6EEF0BF070EF0BF094EF0BF0E6
:1016E000FF0E6A15386EFF0E6B15396EFF0E6C1506
:1016F0003A6E7F0E6D153B6E385039103A103B1024
:10170000D8B485EF0BF087EF0BF08BEF0BF0010EE9
:10171000696F94EF0BF06FA190EF0BF092EF0BF06D
:1017200094EF0BF087EF0BF06951D8B49AEF0BF000
:101730009CEF0BF0C0EF0BF0010E6F27000E702333
:101740007123722372A1A7EF0BF0A9EF0BF0C0EF8A
:101750000BF06FC038F070C039F071C03AF072C051
:101760003BF03B343B323A323932383238C06FF0DA
:1017700039C070F03AC071F03BC072F0734B742BFB
:1017800074BFCBEF0BF0745108E17329D8A0CBEFF5
:101790000BF0CDEF0BF0D7EF0BF0000E6F6F000EDC
:1017A000706F800E716F7F0E726F05EF0CF074BF5B
:1017B000E4EF0BF0745106E17305D8B0E2EF0BF0E3
:1017C000E4EF0BF0F0EF0BF0000E6F6F000E706F98
:1017D000000E716F000E726F000E686F05EF0CF057
:1017E00073C06EF0FF0E6F17FF0E70177F0E71172C
:1017F000000E72176EA1FFEF0BF001EF0CF002EF7D
:101800000CF0718FD8906E31726F685172136FC087
:1018100060F070C061F071C062F072C063F01200DD
:101820002250800B2F6E22502224366E21AE1BEFE9
:101830000CF01DEF0CF01EEF0CF036803650D8B4D3
:1018400024EF0CF026EF0CF03BEF0CF03628D8A478
:101850002CEF0CF02EEF0CF036EF0CF0000E1F6E9C
:10186000000E206E000E216E000E226E218E000EE4
:10187000226E43EF0CF0000E1F6E000E206E000E65
:10188000216E000E226E2650800B2F1A2650262421
:10189000376E25AE4EEF0CF050EF0CF051EF0CF020
:1018A00037803750D8B457EF0CF059EF0CF06EEF8B
:1018B0000CF03728D8A45FEF0CF061EF0CF069EF63
:1018C0000CF0000E236E000E246E000E256E000E2E
:1018D000266E258E000E266E76EF0CF0000E236E1F
:1018E000000E246E000E256E000E266E235024106E
:1018F00025102610D8A47FEF0CF081EF0CF099EFA3
:101900000CF0000E1F6E000E206E000E216E000EF9
:10191000226E800E21127F0E22122F5022121FC023
:101920001FF020C020F021C021F022C022F0DCEF07
:101930000DF03650D8A49FEF0CF0A1EF0CF0ABEFF8
:101940000CF0000E1F6E000E206E000E216E000EB9
:10195000226EDCEF0DF0375036C027F0286A275E84
:10196000000E285A7F0E2724306E000E2820316E7C
:101970001FC02BF020C02CF021C02DF022C02EF073
:10198000000E1F6E000E206E000E216E000E226EE5
:10199000000E326E000E336E000E346E000E356E89
:1019A000000E376E0CEF0DF03750D8B4DAEF0CF0B4
:1019B000DCEF0CF0F3EF0CF0D8902B362C362D36F4
:1019C0002E36D8901F3620362136223635AEEBEF34
:1019D0000CF0EDEF0CF0EEEF0CF01F80D8903236EB
:1019E00033363436353623502B5C24502C58255052
:1019F0002D5826502E58D8A000EF0DF002EF0DF014
:101A00000BEF0DF0358C23502B5E24502C5A2550B3
:101A10002D5A26502E5A372A190E376412EF0DF020
:101A200014EF0DF0D4EF0CF02B502C102D102E10C5
:101A3000D8B41DEF0DF01FEF0DF037EF0DF0328031
:101A400037EF0DF0D8901F3620362136223635AECE
:101A50002CEF0DF02EEF0DF02FEF0DF01F80D89032
:101A600032363336343635363006D8A0310621AE1C
:101A70003CEF0DF03EEF0DF022EF0DF0000E376E53
:101A800035AE45EF0DF047EF0DF06BEF0DF0FF0EAB
:101A90003214276EFF0E3314286EFF0E3414296E95
:101AA0007F0E35142A6E2750281029102A10D8B41A
:101AB0005CEF0DF05EEF0DF062EF0DF0010E376E92
:101AC0006BEF0DF01FA067EF0DF069EF0DF06BEFFE
:101AD0000DF05EEF0DF03750D8B471EF0DF073EFED
:101AE0000DF097EF0DF0010E1F26000E202221228F
:101AF000222222A07EEF0DF080EF0DF097EF0DF087
:101B00001FC027F020C028F021C029F022C02AF0F1
:101B10002A342A3229322832273227C01FF028C01F
:101B200020F029C021F02AC022F0304A312A31BEEB
:101B3000A2EF0DF0315008E13028D8A0A2EF0DF04F
:101B4000A4EF0DF0AFEF0DF0000E316E3068000E17
:101B50001F6E000E206E000E216E000E226E31BE32
:101B6000BCEF0DF0315006E13004D8B0BAEF0DF003
:101B7000BCEF0DF0CAEF0DF0000E316E000E306EAE
:101B8000000E1F6E000E206E000E216E000E226EE3
:101B9000000E2F6E30C036F036A0D1EF0DF0D3EF2F
:101BA0000DF0D6EF0DF0218ED7EF0DF0219ED890DD
:101BB0003630226E8DEF0CF0120073EC12F095941B
:101BC00095968C848C9649EC12F066EC12F077ECCA
:101BD00010F0000E00017D6F000E7E6F8C0E7F6F87
:101BE000420E806F77EC10F075C081F076C082F005
:101BF00077C083F078C084F00001AC51D8B403EF13
:101C00000EF005EF0EF058EF0EF0000E116E000E04
:101C1000126E8C0E136E420E146E81C015F082C0CF
:101C200016F083C017F084C018F0A3EC0FF0D8B002
:101C30001CEF0EF01EEF0EF055EF0EF08C94150E0B
:101C400000017C6F460E7B6F8C0EE82EFED77B2F3B
:101C5000FCD77C2FFAD70000150E00017C6F460ED2
:101C60007B6F8C0EE82EFED77B2FFCD77C2FFAD70C
:101C70000000150E00017C6F460E7B6F8C0EE82E67
:101C8000FED77B2FFCD77C2FFAD70000150E000162
:101C90007C6F460E7B6F8C0EE82EFED77B2FFCD719
:101CA0007C2FFAD70000B9EF0EF08C84B9EF0EF05C
:101CB0007DC011F07EC012F07FC013F080C014F020
:101CC00081C015F082C016F083C017F084C018F0F0
:101CD000A3EC0FF0D8B06FEF0EF071EF0EF095EFB0
:101CE0000EF01E0E116E000E126E000E136E78ECCA
:101CF00011F07DC011F07EC012F07FC013F080C0E3
:101D000014F0000E156E000E166E200E176E410EAA
:101D1000186E9AEC07F011C07DF012C07EF013C06F
:101D20007FF014C080F0B9EF0EF081C011F082C0D6
:101D300012F083C013F084C014F0000E156E000E74
:101D4000166E8C0E176E420E186EA3EC0FF0D8A014
:101D5000ACEF0EF0AEEF0EF0B0EF0EF0B9EF0EF00C
:101D6000000E00017D6F000E7E6F8C0E7F6F420EA5
:101D7000806F030E00017C6F080E7B6F770EE82EDC
:101D8000FED77B2FFCD77C2FFAD7F2EF0DF0AFEF09
:101D900000F0196E1950D8B4D0EF0EF0D2EF0EF05B
:101DA000F4EF0EF014BED9EF0EF0D7EF0EF0F4EF13
:101DB0000EF011C015F012C016F013C017F014C0C9
:101DC00018F0151E161E171E181E152A000E1622B4
:101DD0001722182215C01BF016C01CF017C01DF0EA
:101DE00018C01EF0FCEF0EF011C01BF012C01CF06A
:101DF00013C01DF014C01EF0115012101310141057
:101E0000D8A405EF0FF007EF0FF011EF0FF0000E61
:101E1000116E000E126E000E136E000E146EA2EF05
:101E20000FF0960E1A6E1BEF0FF01A2AD8901E3282
:101E30001D321C321B32000E1B14156E000E1C14BA
:101E4000166E000E1D14176EFE0E1E14186E155021
:101E5000161017101810D8A430EF0FF032EF0FF053
:101E600015EF0FF040EF0FF01A2A010E1B26000E9F
:101E70001C221D221E22D8901E321D321C321B3203
:101E8000000E1B14156E000E1C14166E000E1D1491
:101E9000176EFF0E1E14186E15501610171018101E
:101EA000D8A455EF0FF057EF0FF034EF0FF05FEFBE
:101EB0000FF01A06D8901B361C361D361E361DBE76
:101EC00064EF0FF066EF0FF06EEF0FF0020E1A6086
:101ED0006CEF0FF06EEF0FF059EF0FF01AB073EFD9
:101EE0000FF075EF0FF076EF0FF01D9ED8901A32BD
:101EF0001AC015F0166A176A186A15C018F0176A22
:101F0000166A156A15501B1216501C1217501D1216
:101F100018501E121950D8B490EF0FF092EF0FF036
:101F20009AEF0FF014BE99EF0FF097EF0FF09AEFC2
:101F30000FF01E8E1BC011F01CC012F01DC013F05C
:101F40001EC014F01200000E1114196E000E1214AF
:101F50001A6E800E13141B6E7F0E14141C6E195013
:101F60001A101B101C10D8A4B8EF0FF0BAEF0FF026
:101F7000C2EF0FF0000E116E000E126E000E136E07
:101F8000000E146E000E1514196E000E16141A6E43
:101F9000800E17141B6E7F0E18141C6E19501A1029
:101FA0001B101C10D8A4D7EF0FF0D9EF0FF0E1EF02
:101FB0000FF0000E156E000E166E000E176E000E5E
:101FC000186E14AEE6EF0FF0E8EF0FF0F1EF0FF040
:101FD000116C121ED8B0122A131ED8B0132A800E0C
:101FE000145618AEF6EF0FF0F8EF0FF001EF10F007
:101FF000156C161ED8B0162A171ED8B0172A800ED8
:102000001856000E111A000E121A000E131A800E26
:10201000141A000E151A000E161A000E171A800E4A
:10202000181A1550115C16501258175013581850A2
:102030001458D8B01EEF10F020EF10F023EF10F07E
:10204000D89024EF10F0D880120014EC13F092EC2A
:1020500012F00009D8B42FEF10F031EF10F041EF7B
:1020600010F07EEC12F00009D8B439EF10F03BEF1D
:1020700010F041EF10F0050E496E010E486E59EF59
:1020800010F088EC12F00009D8B449EF10F04BEFD3
:1020900010F059EF10F07EEC12F00009D8B453EFB5
:1020A00010F055EF10F059EF10F0050E496E020ECA
:1020B000486E4950020DF350150F036E03C0F6FF32
:1020C0000F0EF76EF86A0900F5CF04F00900F5CF9E
:1020D00005F002D875EF10F00500FA6E0450FD6EA1
:1020E0000550FE6EFF6AFA501200496E120023EC92
:1020F00012F011C079F012C07AF0000E236E000EBB
:10210000246E800E256E450E266E79C011F07AC0C1
:1021100012F0136A146A000EC9EC0EF011C01FF021
:1021200012C020F013C021F014C022F010EC0CF00B
:102130001FC060F020C061F021C062F022C063F0D7
:10214000000E0001646F000E656FC80E666F420ED0
:10215000676FFAEC09F060C075F061C076F062C09C
:1021600077F063C078F01200040E016E9CEC12F060
:102170000009D8B4BEEF10F0C0EF10F0EAEF10F095
:1021800045504610D8B4C7EF10F0C9EF10F0D5EFA6
:1021900010F010EC13F043C0D9FF44C0DAFFDF6E3B
:1021A000434A442A4506D8A0460645504610D8B4AE
:1021B000DCEF10F0DEEF10F0E2EF10F0FEEC12F0CA
:1021C000ECEF10F00CEC13F0FBEC12F0070E016ECC
:1021D000ECEF10F00EEC13F001501200060E496EF9
:1021E000030E486E16EC13F04950020DF350150F14
:1021F000036E03C0F6FF0F0EF76EF86A0900F5CF05
:1022000004F00900F5CF05F002D810EF11F0050039
:10221000FA6E0450FD6E0550FE6EFF6AFA50120011
:10222000496E02D81EEF11F00500FA6E0001A551AB
:10223000FD6EA651FE6EFF6AFA5012001200415068
:102240004210D8B426EF11F028EF11F038EF11F05A
:102250004106D8A042063FC0D9FF40C0DAFF3F4A3E
:10226000402ADF50EEEC12F0030E026E4BEF11F03D
:102270004750D8B43EEF11F040EF11F048EF11F0A5
:10228000000E476E0AEC13F0010E026E4BEF11F0D8
:10229000B5EC12F0026E025012000F015A895A8BEF
:1022A0005A8D5A8FF290F286F28EF28CD09EF29274
:1022B000F18C000E116E000E126EDBEC12F0F0903D
:1022C000F18A000E116E000E126ED6EC12F0F09232
:1022D000F188000E116E000E126ED1EC12F0F09427
:1022E000F186000E116E000E126ECCEC12F0120090
:1022F00090EF11F011C0F6FF12C0F7FF13C0F8FF06
:102300000800F5CFADFF020E1126000E1222000EBE
:102310001322ACA28EEF11F090EF11F089EF11F0C3
:1023200011C0F6FF12C0F7FF13C0F8FF0900F55007
:102330000900F510D8A49FEF11F0A1EF11F07AEF8A
:1023400011F012000E0EF66E260EF76E000EF86EED
:1023500000EEA8F010EE05F00900F5CFEEFFE55015
:10236000E150FAE100EE85F0230EEE6AE806FDE1A9
:1023700000EE3CF0130EEE6AE806FDE14F904F923E
:102380000001DDEF0DF0F2944B50D76E4AC0D6FF3E
:10239000000199519A11D8B4D0EF11F0D2EF11F099
:1023A000DEEF11F002D8DEEF11F00500FA6E995160
:1023B000FD6E9A51FE6EFF6AFA5012001200000E76
:1023C000896E000E8A6E180E8B6E000E8C6E000EDB
:1023D0008D6EEF0E926E936894689568070E966EF8
:1023E000000E0F015B6F000E5A6FF2861200D59C33
:1023F000000ED76E000ED66ED750136ED6504A6EB2
:1024000013C04BF0F294F28A970ED56E300E116E17
:10241000260E126EC7EC12F01200000E3C6E000E7B
:102420003E6E3D68000E3F6E000E406E000E436E25
:10243000000E446E000E496E14EC13F016EC13F00F
:1024400001EC13F01200C282C2B229EF12F02BEF9E
:1024500012F024EF12F0C350C4CF13F0146A13C06B
:1024600014F0136A1310116E1450126E1200800EC5
:10247000C76E080EC66E000EC56E030EC86EF2EC77
:1024800012F0320E116E260E126E58EC12F0C68A41
:102490001200010E0F015D6F9280010EC26E000EE0
:1024A000C16EAD0EC06E000EC46E000EC36E120083
:1024B00011501210D8B45FEF12F061EF12F065EF17
:1024C00012F011C0A5F012C0A6F01200AC84AC8AC4
:1024D000AC98AC9CA796340EAF6EAB8EAB88AB9C21
:1024E000949C948E1200A6EC12F0DFEC11F037EC05
:1024F00012F0F7EC11F04DEC11F01200C5BC83EFB7
:1025000012F086EF12F0010E87EF12F0000E1200AB
:10251000C7BA8DEF12F090EF12F0010E91EF12F0AA
:10252000000E1200C7AA97EF12F09AEF12F0010EF8
:102530009BEF12F0000E1200C7B0A1EF12F0A4EF53
:1025400012F0010EA5EF12F0000E1200700ED36E05
:10255000000ED26E000E9B6E000E9A6E120004ECFE
:1025600013F0000E3C6E000E120012EC13F00DEC96
:1025700012F0000E12003D503D24EEEC12F0030E5E
:102580001200D8803D34EEEC12F0040E120011C09F
:1025900099F012C09AF0120011C09BF012C09CF08A
:1025A000120011C09DF012C09EF0120011C09FF0E9
:1025B00012C0A0F0120011C04CF012C04DF0120079
:1025C000AFEC12F0016E01501200B5EC12F0016E8A
:1025D00001501200000E3C6E080E1200016E01C088
:1025E000C9FF12009D86A086120025EC10F0120093
:1025F000EEEC10F01200C58AC5881200C59AC58895
:102600001200C69EC69C1200C69AC68A120000001E
:032610008C4201F8
:10261400C5821200C5921200C5861200C95012006C
:10262400C58412009E961200A19612001200120098
:020000040030CA
:0E0000001D087F50FF8991FF0FC00FE00F40D9
:00000001FF
